{
	"contracts/Locatation.sol": {
		"Locations": {
			"abi": [
				{
					"inputs": [],
					"name": "iniFungsi",
					"outputs": [
						{
							"internalType": "uint256[]",
							"name": "",
							"type": "uint256[]"
						},
						{
							"internalType": "uint256[]",
							"name": "",
							"type": "uint256[]"
						}
					],
					"stateMutability": "pure",
					"type": "function"
				},
				{
					"inputs": [],
					"name": "inivalue",
					"outputs": [
						{
							"internalType": "uint256",
							"name": "",
							"type": "uint256"
						}
					],
					"stateMutability": "pure",
					"type": "function"
				}
			],
			"devdoc": {
				"kind": "dev",
				"methods": {},
				"version": 1
			},
			"evm": {
				"assembly": "    /* \"contracts/Locatation.sol\":1565:2373  contract Locations {... */\n  mstore(0x40, 0x80)\n  callvalue\n  dup1\n  iszero\n  tag_1\n  jumpi\n  0x00\n  dup1\n  revert\ntag_1:\n  pop\n  dataSize(sub_0)\n  dup1\n  dataOffset(sub_0)\n  0x00\n  codecopy\n  0x00\n  return\nstop\n\nsub_0: assembly {\n        /* \"contracts/Locatation.sol\":1565:2373  contract Locations {... */\n      mstore(0x40, 0x80)\n      callvalue\n      dup1\n      iszero\n      tag_1\n      jumpi\n      0x00\n      dup1\n      revert\n    tag_1:\n      pop\n      jumpi(tag_2, lt(calldatasize, 0x04))\n      shr(0xe0, calldataload(0x00))\n      dup1\n      0x1450c1ea\n      eq\n      tag_3\n      jumpi\n      dup1\n      0x565d929d\n      eq\n      tag_4\n      jumpi\n    tag_2:\n      0x00\n      dup1\n      revert\n        /* \"contracts/Locatation.sol\":1591:2086  function iniFungsi() public pure returns(uint[] memory, uint[] memory){... */\n    tag_3:\n      tag_5\n      tag_6\n      jump\t// in\n    tag_5:\n      mload(0x40)\n      tag_7\n      swap3\n      swap2\n      swap1\n      tag_8\n      jump\t// in\n    tag_7:\n      mload(0x40)\n      dup1\n      swap2\n      sub\n      swap1\n      return\n        /* \"contracts/Locatation.sol\":2094:2370  function inivalue() public pure returns(uint){... */\n    tag_4:\n      tag_9\n      tag_10\n      jump\t// in\n    tag_9:\n      mload(0x40)\n      tag_11\n      swap2\n      swap1\n      tag_12\n      jump\t// in\n    tag_11:\n      mload(0x40)\n      dup1\n      swap2\n      sub\n      swap1\n      return\n        /* \"contracts/Locatation.sol\":1591:2086  function iniFungsi() public pure returns(uint[] memory, uint[] memory){... */\n    tag_6:\n        /* \"contracts/Locatation.sol\":1632:1645  uint[] memory */\n      0x60\n        /* \"contracts/Locatation.sol\":1647:1660  uint[] memory */\n      dup1\n        /* \"contracts/Locatation.sol\":1765:1796  uint[] memory localMemoryArray1 */\n      0x00\n        /* \"contracts/Locatation.sol\":1810:1811  3 */\n      0x03\n        /* \"contracts/Locatation.sol\":1799:1812  new uint[](3) */\n      0xffffffffffffffff\n      dup2\n      gt\n      iszero\n      tag_14\n      jumpi\n      tag_15\n      tag_16\n      jump\t// in\n    tag_15:\n    tag_14:\n      mload(0x40)\n      swap1\n      dup1\n      dup3\n      mstore\n      dup1\n      0x20\n      mul\n      0x20\n      add\n      dup3\n      add\n      0x40\n      mstore\n      dup1\n      iszero\n      tag_17\n      jumpi\n      dup2\n      0x20\n      add\n      0x20\n      dup3\n      mul\n      dup1\n      calldatasize\n      dup4\n      calldatacopy\n      dup1\n      dup3\n      add\n      swap2\n      pop\n      pop\n      swap1\n      pop\n    tag_17:\n      pop\n        /* \"contracts/Locatation.sol\":1765:1812  uint[] memory localMemoryArray1 = new uint[](3) */\n      swap1\n      pop\n        /* \"contracts/Locatation.sol\":1848:1849  4 */\n      0x04\n        /* \"contracts/Locatation.sol\":1825:1842  localMemoryArray1 */\n      dup2\n        /* \"contracts/Locatation.sol\":1843:1844  0 */\n      0x00\n        /* \"contracts/Locatation.sol\":1825:1845  localMemoryArray1[0] */\n      dup2\n      mload\n      dup2\n      lt\n      tag_18\n      jumpi\n      tag_19\n      tag_20\n      jump\t// in\n    tag_19:\n    tag_18:\n      0x20\n      mul\n      0x20\n      add\n      add\n        /* \"contracts/Locatation.sol\":1825:1849  localMemoryArray1[0] = 4 */\n      dup2\n      dup2\n      mstore\n      pop\n      pop\n        /* \"contracts/Locatation.sol\":1883:1884  5 */\n      0x05\n        /* \"contracts/Locatation.sol\":1860:1877  localMemoryArray1 */\n      dup2\n        /* \"contracts/Locatation.sol\":1878:1879  1 */\n      0x01\n        /* \"contracts/Locatation.sol\":1860:1880  localMemoryArray1[1] */\n      dup2\n      mload\n      dup2\n      lt\n      tag_21\n      jumpi\n      tag_22\n      tag_20\n      jump\t// in\n    tag_22:\n    tag_21:\n      0x20\n      mul\n      0x20\n      add\n      add\n        /* \"contracts/Locatation.sol\":1860:1884  localMemoryArray1[1] = 5 */\n      dup2\n      dup2\n      mstore\n      pop\n      pop\n        /* \"contracts/Locatation.sol\":1918:1919  6 */\n      0x06\n        /* \"contracts/Locatation.sol\":1895:1912  localMemoryArray1 */\n      dup2\n        /* \"contracts/Locatation.sol\":1913:1914  2 */\n      0x02\n        /* \"contracts/Locatation.sol\":1895:1915  localMemoryArray1[2] */\n      dup2\n      mload\n      dup2\n      lt\n      tag_23\n      jumpi\n      tag_24\n      tag_20\n      jump\t// in\n    tag_24:\n    tag_23:\n      0x20\n      mul\n      0x20\n      add\n      add\n        /* \"contracts/Locatation.sol\":1895:1919  localMemoryArray1[2] = 6 */\n      dup2\n      dup2\n      mstore\n      pop\n      pop\n        /* \"contracts/Locatation.sol\":1932:1963  uint[] memory localMemoryArray2 */\n      0x00\n        /* \"contracts/Locatation.sol\":1966:1983  localMemoryArray1 */\n      dup2\n        /* \"contracts/Locatation.sol\":1932:1983  uint[] memory localMemoryArray2 = localMemoryArray1 */\n      swap1\n      pop\n        /* \"contracts/Locatation.sol\":2017:2019  10 */\n      0x0a\n        /* \"contracts/Locatation.sol\":1994:2011  localMemoryArray1 */\n      dup3\n        /* \"contracts/Locatation.sol\":2012:2013  0 */\n      0x00\n        /* \"contracts/Locatation.sol\":1994:2014  localMemoryArray1[0] */\n      dup2\n      mload\n      dup2\n      lt\n      tag_25\n      jumpi\n      tag_26\n      tag_20\n      jump\t// in\n    tag_26:\n    tag_25:\n      0x20\n      mul\n      0x20\n      add\n      add\n        /* \"contracts/Locatation.sol\":1994:2019  localMemoryArray1[0] = 10 */\n      dup2\n      dup2\n      mstore\n      pop\n      pop\n        /* \"contracts/Locatation.sol\":2039:2056  localMemoryArray1 */\n      dup2\n        /* \"contracts/Locatation.sol\":2058:2075  localMemoryArray2 */\n      dup2\n        /* \"contracts/Locatation.sol\":2032:2076  return(localMemoryArray1, localMemoryArray2) */\n      swap4\n      pop\n      swap4\n      pop\n      pop\n      pop\n        /* \"contracts/Locatation.sol\":1591:2086  function iniFungsi() public pure returns(uint[] memory, uint[] memory){... */\n      swap1\n      swap2\n      jump\t// out\n        /* \"contracts/Locatation.sol\":2094:2370  function inivalue() public pure returns(uint){... */\n    tag_10:\n        /* \"contracts/Locatation.sol\":2134:2138  uint */\n      0x00\n        /* \"contracts/Locatation.sol\":2225:2239  uint localVar1 */\n      dup1\n        /* \"contracts/Locatation.sol\":2242:2244  10 */\n      0x0a\n        /* \"contracts/Locatation.sol\":2225:2244  uint localVar1 = 10 */\n      swap1\n      pop\n        /* \"contracts/Locatation.sol\":2255:2269  uint localVar2 */\n      0x00\n        /* \"contracts/Locatation.sol\":2272:2274  20 */\n      0x14\n        /* \"contracts/Locatation.sol\":2255:2274  uint localVar2 = 20 */\n      swap1\n      pop\n        /* \"contracts/Locatation.sol\":2299:2308  localVar2 */\n      dup1\n        /* \"contracts/Locatation.sol\":2287:2308  localVar1 = localVar2 */\n      swap2\n      pop\n        /* \"contracts/Locatation.sol\":2331:2333  40 */\n      0x28\n        /* \"contracts/Locatation.sol\":2319:2333  localVar1 = 40 */\n      swap2\n      pop\n        /* \"contracts/Locatation.sol\":2353:2362  localVar1 */\n      dup2\n        /* \"contracts/Locatation.sol\":2346:2362  return localVar1 */\n      swap3\n      pop\n      pop\n      pop\n        /* \"contracts/Locatation.sol\":2094:2370  function inivalue() public pure returns(uint){... */\n      swap1\n      jump\t// out\n        /* \"#utility.yul\":7:121   */\n    tag_28:\n        /* \"#utility.yul\":74:80   */\n      0x00\n        /* \"#utility.yul\":108:113   */\n      dup2\n        /* \"#utility.yul\":102:114   */\n      mload\n        /* \"#utility.yul\":92:114   */\n      swap1\n      pop\n        /* \"#utility.yul\":7:121   */\n      swap2\n      swap1\n      pop\n      jump\t// out\n        /* \"#utility.yul\":127:311   */\n    tag_29:\n        /* \"#utility.yul\":226:237   */\n      0x00\n        /* \"#utility.yul\":260:266   */\n      dup3\n        /* \"#utility.yul\":255:258   */\n      dup3\n        /* \"#utility.yul\":248:267   */\n      mstore\n        /* \"#utility.yul\":300:304   */\n      0x20\n        /* \"#utility.yul\":295:298   */\n      dup3\n        /* \"#utility.yul\":291:305   */\n      add\n        /* \"#utility.yul\":276:305   */\n      swap1\n      pop\n        /* \"#utility.yul\":127:311   */\n      swap3\n      swap2\n      pop\n      pop\n      jump\t// out\n        /* \"#utility.yul\":317:449   */\n    tag_30:\n        /* \"#utility.yul\":384:388   */\n      0x00\n        /* \"#utility.yul\":407:410   */\n      dup2\n        /* \"#utility.yul\":399:410   */\n      swap1\n      pop\n        /* \"#utility.yul\":437:441   */\n      0x20\n        /* \"#utility.yul\":432:435   */\n      dup3\n        /* \"#utility.yul\":428:442   */\n      add\n        /* \"#utility.yul\":420:442   */\n      swap1\n      pop\n        /* \"#utility.yul\":317:449   */\n      swap2\n      swap1\n      pop\n      jump\t// out\n        /* \"#utility.yul\":455:532   */\n    tag_31:\n        /* \"#utility.yul\":492:499   */\n      0x00\n        /* \"#utility.yul\":521:526   */\n      dup2\n        /* \"#utility.yul\":510:526   */\n      swap1\n      pop\n        /* \"#utility.yul\":455:532   */\n      swap2\n      swap1\n      pop\n      jump\t// out\n        /* \"#utility.yul\":538:646   */\n    tag_32:\n        /* \"#utility.yul\":615:639   */\n      tag_43\n        /* \"#utility.yul\":633:638   */\n      dup2\n        /* \"#utility.yul\":615:639   */\n      tag_31\n      jump\t// in\n    tag_43:\n        /* \"#utility.yul\":610:613   */\n      dup3\n        /* \"#utility.yul\":603:640   */\n      mstore\n        /* \"#utility.yul\":538:646   */\n      pop\n      pop\n      jump\t// out\n        /* \"#utility.yul\":652:831   */\n    tag_33:\n        /* \"#utility.yul\":721:731   */\n      0x00\n        /* \"#utility.yul\":742:788   */\n      tag_45\n        /* \"#utility.yul\":784:787   */\n      dup4\n        /* \"#utility.yul\":776:782   */\n      dup4\n        /* \"#utility.yul\":742:788   */\n      tag_32\n      jump\t// in\n    tag_45:\n        /* \"#utility.yul\":820:824   */\n      0x20\n        /* \"#utility.yul\":815:818   */\n      dup4\n        /* \"#utility.yul\":811:825   */\n      add\n        /* \"#utility.yul\":797:825   */\n      swap1\n      pop\n        /* \"#utility.yul\":652:831   */\n      swap3\n      swap2\n      pop\n      pop\n      jump\t// out\n        /* \"#utility.yul\":837:950   */\n    tag_34:\n        /* \"#utility.yul\":907:911   */\n      0x00\n        /* \"#utility.yul\":939:943   */\n      0x20\n        /* \"#utility.yul\":934:937   */\n      dup3\n        /* \"#utility.yul\":930:944   */\n      add\n        /* \"#utility.yul\":922:944   */\n      swap1\n      pop\n        /* \"#utility.yul\":837:950   */\n      swap2\n      swap1\n      pop\n      jump\t// out\n        /* \"#utility.yul\":986:1718   */\n    tag_35:\n        /* \"#utility.yul\":1105:1108   */\n      0x00\n        /* \"#utility.yul\":1134:1188   */\n      tag_48\n        /* \"#utility.yul\":1182:1187   */\n      dup3\n        /* \"#utility.yul\":1134:1188   */\n      tag_28\n      jump\t// in\n    tag_48:\n        /* \"#utility.yul\":1204:1290   */\n      tag_49\n        /* \"#utility.yul\":1283:1289   */\n      dup2\n        /* \"#utility.yul\":1278:1281   */\n      dup6\n        /* \"#utility.yul\":1204:1290   */\n      tag_29\n      jump\t// in\n    tag_49:\n        /* \"#utility.yul\":1197:1290   */\n      swap4\n      pop\n        /* \"#utility.yul\":1314:1370   */\n      tag_50\n        /* \"#utility.yul\":1364:1369   */\n      dup4\n        /* \"#utility.yul\":1314:1370   */\n      tag_30\n      jump\t// in\n    tag_50:\n        /* \"#utility.yul\":1393:1400   */\n      dup1\n        /* \"#utility.yul\":1424:1425   */\n      0x00\n        /* \"#utility.yul\":1409:1693   */\n    tag_51:\n        /* \"#utility.yul\":1434:1440   */\n      dup4\n        /* \"#utility.yul\":1431:1432   */\n      dup2\n        /* \"#utility.yul\":1428:1441   */\n      lt\n        /* \"#utility.yul\":1409:1693   */\n      iszero\n      tag_53\n      jumpi\n        /* \"#utility.yul\":1510:1516   */\n      dup2\n        /* \"#utility.yul\":1504:1517   */\n      mload\n        /* \"#utility.yul\":1537:1600   */\n      tag_54\n        /* \"#utility.yul\":1596:1599   */\n      dup9\n        /* \"#utility.yul\":1581:1594   */\n      dup3\n        /* \"#utility.yul\":1537:1600   */\n      tag_33\n      jump\t// in\n    tag_54:\n        /* \"#utility.yul\":1530:1600   */\n      swap8\n      pop\n        /* \"#utility.yul\":1623:1683   */\n      tag_55\n        /* \"#utility.yul\":1676:1682   */\n      dup4\n        /* \"#utility.yul\":1623:1683   */\n      tag_34\n      jump\t// in\n    tag_55:\n        /* \"#utility.yul\":1613:1683   */\n      swap3\n      pop\n        /* \"#utility.yul\":1469:1693   */\n      pop\n        /* \"#utility.yul\":1456:1457   */\n      0x01\n        /* \"#utility.yul\":1453:1454   */\n      dup2\n        /* \"#utility.yul\":1449:1458   */\n      add\n        /* \"#utility.yul\":1444:1458   */\n      swap1\n      pop\n        /* \"#utility.yul\":1409:1693   */\n      jump(tag_51)\n    tag_53:\n        /* \"#utility.yul\":1413:1427   */\n      pop\n        /* \"#utility.yul\":1709:1712   */\n      dup6\n        /* \"#utility.yul\":1702:1712   */\n      swap4\n      pop\n        /* \"#utility.yul\":1110:1718   */\n      pop\n      pop\n      pop\n        /* \"#utility.yul\":986:1718   */\n      swap3\n      swap2\n      pop\n      pop\n      jump\t// out\n        /* \"#utility.yul\":1724:2358   */\n    tag_8:\n        /* \"#utility.yul\":1945:1949   */\n      0x00\n        /* \"#utility.yul\":1983:1985   */\n      0x40\n        /* \"#utility.yul\":1972:1981   */\n      dup3\n        /* \"#utility.yul\":1968:1986   */\n      add\n        /* \"#utility.yul\":1960:1986   */\n      swap1\n      pop\n        /* \"#utility.yul\":2032:2041   */\n      dup2\n        /* \"#utility.yul\":2026:2030   */\n      dup2\n        /* \"#utility.yul\":2022:2042   */\n      sub\n        /* \"#utility.yul\":2018:2019   */\n      0x00\n        /* \"#utility.yul\":2007:2016   */\n      dup4\n        /* \"#utility.yul\":2003:2020   */\n      add\n        /* \"#utility.yul\":1996:2043   */\n      mstore\n        /* \"#utility.yul\":2060:2168   */\n      tag_57\n        /* \"#utility.yul\":2163:2167   */\n      dup2\n        /* \"#utility.yul\":2154:2160   */\n      dup6\n        /* \"#utility.yul\":2060:2168   */\n      tag_35\n      jump\t// in\n    tag_57:\n        /* \"#utility.yul\":2052:2168   */\n      swap1\n      pop\n        /* \"#utility.yul\":2215:2224   */\n      dup2\n        /* \"#utility.yul\":2209:2213   */\n      dup2\n        /* \"#utility.yul\":2205:2225   */\n      sub\n        /* \"#utility.yul\":2200:2202   */\n      0x20\n        /* \"#utility.yul\":2189:2198   */\n      dup4\n        /* \"#utility.yul\":2185:2203   */\n      add\n        /* \"#utility.yul\":2178:2226   */\n      mstore\n        /* \"#utility.yul\":2243:2351   */\n      tag_58\n        /* \"#utility.yul\":2346:2350   */\n      dup2\n        /* \"#utility.yul\":2337:2343   */\n      dup5\n        /* \"#utility.yul\":2243:2351   */\n      tag_35\n      jump\t// in\n    tag_58:\n        /* \"#utility.yul\":2235:2351   */\n      swap1\n      pop\n        /* \"#utility.yul\":1724:2358   */\n      swap4\n      swap3\n      pop\n      pop\n      pop\n      jump\t// out\n        /* \"#utility.yul\":2364:2482   */\n    tag_36:\n        /* \"#utility.yul\":2451:2475   */\n      tag_60\n        /* \"#utility.yul\":2469:2474   */\n      dup2\n        /* \"#utility.yul\":2451:2475   */\n      tag_31\n      jump\t// in\n    tag_60:\n        /* \"#utility.yul\":2446:2449   */\n      dup3\n        /* \"#utility.yul\":2439:2476   */\n      mstore\n        /* \"#utility.yul\":2364:2482   */\n      pop\n      pop\n      jump\t// out\n        /* \"#utility.yul\":2488:2710   */\n    tag_12:\n        /* \"#utility.yul\":2581:2585   */\n      0x00\n        /* \"#utility.yul\":2619:2621   */\n      0x20\n        /* \"#utility.yul\":2608:2617   */\n      dup3\n        /* \"#utility.yul\":2604:2622   */\n      add\n        /* \"#utility.yul\":2596:2622   */\n      swap1\n      pop\n        /* \"#utility.yul\":2632:2703   */\n      tag_62\n        /* \"#utility.yul\":2700:2701   */\n      0x00\n        /* \"#utility.yul\":2689:2698   */\n      dup4\n        /* \"#utility.yul\":2685:2702   */\n      add\n        /* \"#utility.yul\":2676:2682   */\n      dup5\n        /* \"#utility.yul\":2632:2703   */\n      tag_36\n      jump\t// in\n    tag_62:\n        /* \"#utility.yul\":2488:2710   */\n      swap3\n      swap2\n      pop\n      pop\n      jump\t// out\n        /* \"#utility.yul\":2716:2896   */\n    tag_16:\n        /* \"#utility.yul\":2764:2841   */\n      0x4e487b7100000000000000000000000000000000000000000000000000000000\n        /* \"#utility.yul\":2761:2762   */\n      0x00\n        /* \"#utility.yul\":2754:2842   */\n      mstore\n        /* \"#utility.yul\":2861:2865   */\n      0x41\n        /* \"#utility.yul\":2858:2859   */\n      0x04\n        /* \"#utility.yul\":2851:2866   */\n      mstore\n        /* \"#utility.yul\":2885:2889   */\n      0x24\n        /* \"#utility.yul\":2882:2883   */\n      0x00\n        /* \"#utility.yul\":2875:2890   */\n      revert\n        /* \"#utility.yul\":2902:3082   */\n    tag_20:\n        /* \"#utility.yul\":2950:3027   */\n      0x4e487b7100000000000000000000000000000000000000000000000000000000\n        /* \"#utility.yul\":2947:2948   */\n      0x00\n        /* \"#utility.yul\":2940:3028   */\n      mstore\n        /* \"#utility.yul\":3047:3051   */\n      0x32\n        /* \"#utility.yul\":3044:3045   */\n      0x04\n        /* \"#utility.yul\":3037:3052   */\n      mstore\n        /* \"#utility.yul\":3071:3075   */\n      0x24\n        /* \"#utility.yul\":3068:3069   */\n      0x00\n        /* \"#utility.yul\":3061:3076   */\n      revert\n\n    auxdata: 0xa2646970667358221220ec37752a6f9a0e4dbc3dddea7d3206027c62462cb9312e0c53fd369c33cf6a0e64736f6c634300081a0033\n}\n",
				"bytecode": {
					"linkReferences": {},
					"object": "6080604052348015600e575f80fd5b506103228061001c5f395ff3fe608060405234801561000f575f80fd5b5060043610610034575f3560e01c80631450c1ea14610038578063565d929d14610057575b5f80fd5b610040610075565b60405161004e929190610235565b60405180910390f35b61005f61015b565b60405161006c9190610279565b60405180910390f35b6060805f600367ffffffffffffffff81111561009457610093610292565b5b6040519080825280602002602001820160405280156100c25781602001602082028036833780820191505090505b5090506004815f815181106100da576100d96102bf565b5b6020026020010181815250506005816001815181106100fc576100fb6102bf565b5b60200260200101818152505060068160028151811061011e5761011d6102bf565b5b6020026020010181815250505f819050600a825f81518110610143576101426102bf565b5b60200260200101818152505081819350935050509091565b5f80600a90505f6014905080915060289150819250505090565b5f81519050919050565b5f82825260208201905092915050565b5f819050602082019050919050565b5f819050919050565b6101b08161019e565b82525050565b5f6101c183836101a7565b60208301905092915050565b5f602082019050919050565b5f6101e382610175565b6101ed818561017f565b93506101f88361018f565b805f5b8381101561022857815161020f88826101b6565b975061021a836101cd565b9250506001810190506101fb565b5085935050505092915050565b5f6040820190508181035f83015261024d81856101d9565b9050818103602083015261026181846101d9565b90509392505050565b6102738161019e565b82525050565b5f60208201905061028c5f83018461026a565b92915050565b7f4e487b71000000000000000000000000000000000000000000000000000000005f52604160045260245ffd5b7f4e487b71000000000000000000000000000000000000000000000000000000005f52603260045260245ffdfea2646970667358221220ec37752a6f9a0e4dbc3dddea7d3206027c62462cb9312e0c53fd369c33cf6a0e64736f6c634300081a0033",
					"opcodes": "PUSH1 0x80 PUSH1 0x40 MSTORE CALLVALUE DUP1 ISZERO PUSH1 0xE JUMPI PUSH0 DUP1 REVERT JUMPDEST POP PUSH2 0x322 DUP1 PUSH2 0x1C PUSH0 CODECOPY PUSH0 RETURN INVALID PUSH1 0x80 PUSH1 0x40 MSTORE CALLVALUE DUP1 ISZERO PUSH2 0xF JUMPI PUSH0 DUP1 REVERT JUMPDEST POP PUSH1 0x4 CALLDATASIZE LT PUSH2 0x34 JUMPI PUSH0 CALLDATALOAD PUSH1 0xE0 SHR DUP1 PUSH4 0x1450C1EA EQ PUSH2 0x38 JUMPI DUP1 PUSH4 0x565D929D EQ PUSH2 0x57 JUMPI JUMPDEST PUSH0 DUP1 REVERT JUMPDEST PUSH2 0x40 PUSH2 0x75 JUMP JUMPDEST PUSH1 0x40 MLOAD PUSH2 0x4E SWAP3 SWAP2 SWAP1 PUSH2 0x235 JUMP JUMPDEST PUSH1 0x40 MLOAD DUP1 SWAP2 SUB SWAP1 RETURN JUMPDEST PUSH2 0x5F PUSH2 0x15B JUMP JUMPDEST PUSH1 0x40 MLOAD PUSH2 0x6C SWAP2 SWAP1 PUSH2 0x279 JUMP JUMPDEST PUSH1 0x40 MLOAD DUP1 SWAP2 SUB SWAP1 RETURN JUMPDEST PUSH1 0x60 DUP1 PUSH0 PUSH1 0x3 PUSH8 0xFFFFFFFFFFFFFFFF DUP2 GT ISZERO PUSH2 0x94 JUMPI PUSH2 0x93 PUSH2 0x292 JUMP JUMPDEST JUMPDEST PUSH1 0x40 MLOAD SWAP1 DUP1 DUP3 MSTORE DUP1 PUSH1 0x20 MUL PUSH1 0x20 ADD DUP3 ADD PUSH1 0x40 MSTORE DUP1 ISZERO PUSH2 0xC2 JUMPI DUP2 PUSH1 0x20 ADD PUSH1 0x20 DUP3 MUL DUP1 CALLDATASIZE DUP4 CALLDATACOPY DUP1 DUP3 ADD SWAP2 POP POP SWAP1 POP JUMPDEST POP SWAP1 POP PUSH1 0x4 DUP2 PUSH0 DUP2 MLOAD DUP2 LT PUSH2 0xDA JUMPI PUSH2 0xD9 PUSH2 0x2BF JUMP JUMPDEST JUMPDEST PUSH1 0x20 MUL PUSH1 0x20 ADD ADD DUP2 DUP2 MSTORE POP POP PUSH1 0x5 DUP2 PUSH1 0x1 DUP2 MLOAD DUP2 LT PUSH2 0xFC JUMPI PUSH2 0xFB PUSH2 0x2BF JUMP JUMPDEST JUMPDEST PUSH1 0x20 MUL PUSH1 0x20 ADD ADD DUP2 DUP2 MSTORE POP POP PUSH1 0x6 DUP2 PUSH1 0x2 DUP2 MLOAD DUP2 LT PUSH2 0x11E JUMPI PUSH2 0x11D PUSH2 0x2BF JUMP JUMPDEST JUMPDEST PUSH1 0x20 MUL PUSH1 0x20 ADD ADD DUP2 DUP2 MSTORE POP POP PUSH0 DUP2 SWAP1 POP PUSH1 0xA DUP3 PUSH0 DUP2 MLOAD DUP2 LT PUSH2 0x143 JUMPI PUSH2 0x142 PUSH2 0x2BF JUMP JUMPDEST JUMPDEST PUSH1 0x20 MUL PUSH1 0x20 ADD ADD DUP2 DUP2 MSTORE POP POP DUP2 DUP2 SWAP4 POP SWAP4 POP POP POP SWAP1 SWAP2 JUMP JUMPDEST PUSH0 DUP1 PUSH1 0xA SWAP1 POP PUSH0 PUSH1 0x14 SWAP1 POP DUP1 SWAP2 POP PUSH1 0x28 SWAP2 POP DUP2 SWAP3 POP POP POP SWAP1 JUMP JUMPDEST PUSH0 DUP2 MLOAD SWAP1 POP SWAP2 SWAP1 POP JUMP JUMPDEST PUSH0 DUP3 DUP3 MSTORE PUSH1 0x20 DUP3 ADD SWAP1 POP SWAP3 SWAP2 POP POP JUMP JUMPDEST PUSH0 DUP2 SWAP1 POP PUSH1 0x20 DUP3 ADD SWAP1 POP SWAP2 SWAP1 POP JUMP JUMPDEST PUSH0 DUP2 SWAP1 POP SWAP2 SWAP1 POP JUMP JUMPDEST PUSH2 0x1B0 DUP2 PUSH2 0x19E JUMP JUMPDEST DUP3 MSTORE POP POP JUMP JUMPDEST PUSH0 PUSH2 0x1C1 DUP4 DUP4 PUSH2 0x1A7 JUMP JUMPDEST PUSH1 0x20 DUP4 ADD SWAP1 POP SWAP3 SWAP2 POP POP JUMP JUMPDEST PUSH0 PUSH1 0x20 DUP3 ADD SWAP1 POP SWAP2 SWAP1 POP JUMP JUMPDEST PUSH0 PUSH2 0x1E3 DUP3 PUSH2 0x175 JUMP JUMPDEST PUSH2 0x1ED DUP2 DUP6 PUSH2 0x17F JUMP JUMPDEST SWAP4 POP PUSH2 0x1F8 DUP4 PUSH2 0x18F JUMP JUMPDEST DUP1 PUSH0 JUMPDEST DUP4 DUP2 LT ISZERO PUSH2 0x228 JUMPI DUP2 MLOAD PUSH2 0x20F DUP9 DUP3 PUSH2 0x1B6 JUMP JUMPDEST SWAP8 POP PUSH2 0x21A DUP4 PUSH2 0x1CD JUMP JUMPDEST SWAP3 POP POP PUSH1 0x1 DUP2 ADD SWAP1 POP PUSH2 0x1FB JUMP JUMPDEST POP DUP6 SWAP4 POP POP POP POP SWAP3 SWAP2 POP POP JUMP JUMPDEST PUSH0 PUSH1 0x40 DUP3 ADD SWAP1 POP DUP2 DUP2 SUB PUSH0 DUP4 ADD MSTORE PUSH2 0x24D DUP2 DUP6 PUSH2 0x1D9 JUMP JUMPDEST SWAP1 POP DUP2 DUP2 SUB PUSH1 0x20 DUP4 ADD MSTORE PUSH2 0x261 DUP2 DUP5 PUSH2 0x1D9 JUMP JUMPDEST SWAP1 POP SWAP4 SWAP3 POP POP POP JUMP JUMPDEST PUSH2 0x273 DUP2 PUSH2 0x19E JUMP JUMPDEST DUP3 MSTORE POP POP JUMP JUMPDEST PUSH0 PUSH1 0x20 DUP3 ADD SWAP1 POP PUSH2 0x28C PUSH0 DUP4 ADD DUP5 PUSH2 0x26A JUMP JUMPDEST SWAP3 SWAP2 POP POP JUMP JUMPDEST PUSH32 0x4E487B7100000000000000000000000000000000000000000000000000000000 PUSH0 MSTORE PUSH1 0x41 PUSH1 0x4 MSTORE PUSH1 0x24 PUSH0 REVERT JUMPDEST PUSH32 0x4E487B7100000000000000000000000000000000000000000000000000000000 PUSH0 MSTORE PUSH1 0x32 PUSH1 0x4 MSTORE PUSH1 0x24 PUSH0 REVERT INVALID LOG2 PUSH5 0x6970667358 0x22 SLT KECCAK256 0xEC CALLDATACOPY PUSH22 0x2A6F9A0E4DBC3DDDEA7D3206027C62462CB9312E0C53 REVERT CALLDATASIZE SWAP13 CALLER 0xCF PUSH11 0xE64736F6C634300081A00 CALLER "
				},
				"gasEstimates": {
					"creation": {
						"codeDepositCost": "160400",
						"executionCost": "206",
						"totalCost": "160606"
					},
					"external": {
						"iniFungsi()": "infinite",
						"inivalue()": "373"
					}
				},
				"methodIdentifiers": {
					"iniFungsi()": "1450c1ea",
					"inivalue()": "565d929d"
				}
			},
			"storageLayout": {
				"storage": [],
				"types": null
			},
			"userdoc": {
				"kind": "user",
				"methods": {},
				"version": 1
			}
		}
	}
}